{
  "_format": "hh-sol-artifact-1",
  "contractName": "SecurityLog",
  "sourceName": "contracts/SecurityLog.sol",
  "abi": [
    {
      "anonymous": false,
      "inputs": [
        {
          "indexed": true,
          "internalType": "uint256",
          "name": "logId",
          "type": "uint256"
        },
        {
          "indexed": false,
          "internalType": "string",
          "name": "logHash",
          "type": "string"
        },
        {
          "indexed": false,
          "internalType": "string",
          "name": "logType",
          "type": "string"
        },
        {
          "indexed": false,
          "internalType": "uint256",
          "name": "timestamp",
          "type": "uint256"
        }
      ],
      "name": "LogAdded",
      "type": "event"
    },
    {
      "inputs": [
        {
          "internalType": "string",
          "name": "_logHash",
          "type": "string"
        },
        {
          "internalType": "string",
          "name": "_logType",
          "type": "string"
        }
      ],
      "name": "addLog",
      "outputs": [],
      "stateMutability": "nonpayable",
      "type": "function"
    },
    {
      "inputs": [
        {
          "internalType": "uint256",
          "name": "logId",
          "type": "uint256"
        }
      ],
      "name": "getLog",
      "outputs": [
        {
          "internalType": "uint256",
          "name": "",
          "type": "uint256"
        },
        {
          "internalType": "string",
          "name": "",
          "type": "string"
        },
        {
          "internalType": "string",
          "name": "",
          "type": "string"
        }
      ],
      "stateMutability": "view",
      "type": "function"
    },
    {
      "inputs": [],
      "name": "logCount",
      "outputs": [
        {
          "internalType": "uint256",
          "name": "",
          "type": "uint256"
        }
      ],
      "stateMutability": "view",
      "type": "function"
    },
    {
      "inputs": [
        {
          "internalType": "uint256",
          "name": "",
          "type": "uint256"
        }
      ],
      "name": "logs",
      "outputs": [
        {
          "internalType": "uint256",
          "name": "timestamp",
          "type": "uint256"
        },
        {
          "internalType": "string",
          "name": "logHash",
          "type": "string"
        },
        {
          "internalType": "string",
          "name": "logType",
          "type": "string"
        }
      ],
      "stateMutability": "view",
      "type": "function"
    }
  ],
  "bytecode": "0x6080604052600060015534801561001557600080fd5b50610b55806100256000396000f3fe608060405234801561001057600080fd5b506004361061004c5760003560e01c80633206b2c614610051578063a273079a14610083578063a503898f1461009f578063e79899bd146100bd575b600080fd5b61006b600480360381019061006691906104ac565b6100ef565b60405161007a93929190610578565b60405180910390f35b61009d600480360381019061009891906106f2565b610260565b005b6100a7610322565b6040516100b4919061076a565b60405180910390f35b6100d760048036038101906100d291906104ac565b610328565b6040516100e693929190610578565b60405180910390f35b600060608060008060008681526020019081526020016000206040518060600160405290816000820154815260200160018201805461012d906107b4565b80601f0160208091040260200160405190810160405280929190818152602001828054610159906107b4565b80156101a65780601f1061017b576101008083540402835291602001916101a6565b820191906000526020600020905b81548152906001019060200180831161018957829003601f168201915b505050505081526020016002820180546101bf906107b4565b80601f01602080910402602001604051908101604052809291908181526020018280546101eb906107b4565b80156102385780601f1061020d57610100808354040283529160200191610238565b820191906000526020600020905b81548152906001019060200180831161021b57829003601f168201915b5050505050815250509050806000015181602001518260400151935093509350509193909250565b60405180606001604052804281526020018381526020018281525060008060015481526020019081526020016000206000820151816000015560208201518160010190816102ae9190610991565b5060408201518160020190816102c49190610991565b509050506001547f06af170517272e60d652f4ebeb8064e501a5fa522a2b3346d6363f270aacd9558383426040516102fe93929190610a63565b60405180910390a26001600081548092919061031990610ad7565b91905055505050565b60015481565b6000602052806000526040600020600091509050806000015490806001018054610351906107b4565b80601f016020809104026020016040519081016040528092919081815260200182805461037d906107b4565b80156103ca5780601f1061039f576101008083540402835291602001916103ca565b820191906000526020600020905b8154815290600101906020018083116103ad57829003601f168201915b5050505050908060020180546103df906107b4565b80601f016020809104026020016040519081016040528092919081815260200182805461040b906107b4565b80156104585780601f1061042d57610100808354040283529160200191610458565b820191906000526020600020905b81548152906001019060200180831161043b57829003601f168201915b5050505050905083565b6000604051905090565b600080fd5b600080fd5b6000819050919050565b61048981610476565b811461049457600080fd5b50565b6000813590506104a681610480565b92915050565b6000602082840312156104c2576104c161046c565b5b60006104d084828501610497565b91505092915050565b6104e281610476565b82525050565b600081519050919050565b600082825260208201905092915050565b60005b83811015610522578082015181840152602081019050610507565b60008484015250505050565b6000601f19601f8301169050919050565b600061054a826104e8565b61055481856104f3565b9350610564818560208601610504565b61056d8161052e565b840191505092915050565b600060608201905061058d60008301866104d9565b818103602083015261059f818561053f565b905081810360408301526105b3818461053f565b9050949350505050565b600080fd5b600080fd5b7f4e487b7100000000000000000000000000000000000000000000000000000000600052604160045260246000fd5b6105ff8261052e565b810181811067ffffffffffffffff8211171561061e5761061d6105c7565b5b80604052505050565b6000610631610462565b905061063d82826105f6565b919050565b600067ffffffffffffffff82111561065d5761065c6105c7565b5b6106668261052e565b9050602081019050919050565b82818337600083830152505050565b600061069561069084610642565b610627565b9050828152602081018484840111156106b1576106b06105c2565b5b6106bc848285610673565b509392505050565b600082601f8301126106d9576106d86105bd565b5b81356106e9848260208601610682565b91505092915050565b600080604083850312156107095761070861046c565b5b600083013567ffffffffffffffff81111561072757610726610471565b5b610733858286016106c4565b925050602083013567ffffffffffffffff81111561075457610753610471565b5b610760858286016106c4565b9150509250929050565b600060208201905061077f60008301846104d9565b92915050565b7f4e487b7100000000000000000000000000000000000000000000000000000000600052602260045260246000fd5b600060028204905060018216806107cc57607f821691505b6020821081036107df576107de610785565b5b50919050565b60008190508160005260206000209050919050565b60006020601f8301049050919050565b600082821b905092915050565b6000600883026108477fffffffffffffffffffffffffffffffffffffffffffffffffffffffffffffffff8261080a565b610851868361080a565b95508019841693508086168417925050509392505050565b6000819050919050565b600061088e61088961088484610476565b610869565b610476565b9050919050565b6000819050919050565b6108a883610873565b6108bc6108b482610895565b848454610817565b825550505050565b600090565b6108d16108c4565b6108dc81848461089f565b505050565b5b81811015610900576108f56000826108c9565b6001810190506108e2565b5050565b601f82111561094557610916816107e5565b61091f846107fa565b8101602085101561092e578190505b61094261093a856107fa565b8301826108e1565b50505b505050565b600082821c905092915050565b60006109686000198460080261094a565b1980831691505092915050565b60006109818383610957565b9150826002028217905092915050565b61099a826104e8565b67ffffffffffffffff8111156109b3576109b26105c7565b5b6109bd82546107b4565b6109c8828285610904565b600060209050601f8311600181146109fb57600084156109e9578287015190505b6109f38582610975565b865550610a5b565b601f198416610a09866107e5565b60005b82811015610a3157848901518255600182019150602085019450602081019050610a0c565b86831015610a4e5784890151610a4a601f891682610957565b8355505b6001600288020188555050505b505050505050565b60006060820190508181036000830152610a7d818661053f565b90508181036020830152610a91818561053f565b9050610aa060408301846104d9565b949350505050565b7f4e487b7100000000000000000000000000000000000000000000000000000000600052601160045260246000fd5b6000610ae282610476565b91507fffffffffffffffffffffffffffffffffffffffffffffffffffffffffffffffff8203610b1457610b13610aa8565b5b60018201905091905056fea26469706673582212205a7e720e5ccf613f909420c517e995a26dd308330ab069d5777b0d209e36225364736f6c63430008130033",
  "linkReferences": {},
  "deployedLinkReferences": {}
}